{
  "_format": "hh-sol-artifact-1",
  "contractName": "TellYourSecrets",
  "sourceName": "contracts/TellYourSecrets.sol",
  "abi": [
    {
      "inputs": [],
      "stateMutability": "nonpayable",
      "type": "constructor"
    },
    {
      "anonymous": false,
      "inputs": [
        {
          "indexed": true,
          "internalType": "address",
          "name": "owner",
          "type": "address"
        },
        {
          "indexed": true,
          "internalType": "address",
          "name": "approved",
          "type": "address"
        },
        {
          "indexed": true,
          "internalType": "uint256",
          "name": "tokenId",
          "type": "uint256"
        }
      ],
      "name": "Approval",
      "type": "event"
    },
    {
      "anonymous": false,
      "inputs": [
        {
          "indexed": true,
          "internalType": "address",
          "name": "owner",
          "type": "address"
        },
        {
          "indexed": true,
          "internalType": "address",
          "name": "operator",
          "type": "address"
        },
        {
          "indexed": false,
          "internalType": "bool",
          "name": "approved",
          "type": "bool"
        }
      ],
      "name": "ApprovalForAll",
      "type": "event"
    },
    {
      "anonymous": false,
      "inputs": [
        {
          "indexed": true,
          "internalType": "address",
          "name": "previousOwner",
          "type": "address"
        },
        {
          "indexed": true,
          "internalType": "address",
          "name": "newOwner",
          "type": "address"
        }
      ],
      "name": "OwnershipTransferred",
      "type": "event"
    },
    {
      "anonymous": false,
      "inputs": [
        {
          "indexed": true,
          "internalType": "address",
          "name": "from",
          "type": "address"
        },
        {
          "indexed": true,
          "internalType": "address",
          "name": "to",
          "type": "address"
        },
        {
          "indexed": true,
          "internalType": "uint256",
          "name": "tokenId",
          "type": "uint256"
        }
      ],
      "name": "Transfer",
      "type": "event"
    },
    {
      "inputs": [
        {
          "internalType": "address",
          "name": "to",
          "type": "address"
        },
        {
          "internalType": "uint256",
          "name": "tokenId",
          "type": "uint256"
        }
      ],
      "name": "approve",
      "outputs": [],
      "stateMutability": "nonpayable",
      "type": "function"
    },
    {
      "inputs": [
        {
          "internalType": "address",
          "name": "owner",
          "type": "address"
        }
      ],
      "name": "balanceOf",
      "outputs": [
        {
          "internalType": "uint256",
          "name": "",
          "type": "uint256"
        }
      ],
      "stateMutability": "view",
      "type": "function"
    },
    {
      "inputs": [
        {
          "internalType": "uint256",
          "name": "tokenId",
          "type": "uint256"
        }
      ],
      "name": "disownSecret",
      "outputs": [],
      "stateMutability": "payable",
      "type": "function"
    },
    {
      "inputs": [
        {
          "internalType": "uint256",
          "name": "tokenId",
          "type": "uint256"
        }
      ],
      "name": "getApproved",
      "outputs": [
        {
          "internalType": "address",
          "name": "",
          "type": "address"
        }
      ],
      "stateMutability": "view",
      "type": "function"
    },
    {
      "inputs": [],
      "name": "getOwners",
      "outputs": [
        {
          "internalType": "uint256",
          "name": "",
          "type": "uint256"
        }
      ],
      "stateMutability": "view",
      "type": "function"
    },
    {
      "inputs": [
        {
          "internalType": "uint256",
          "name": "tokenId",
          "type": "uint256"
        }
      ],
      "name": "getSecret",
      "outputs": [
        {
          "components": [
            {
              "internalType": "uint256",
              "name": "tokenId",
              "type": "uint256"
            },
            {
              "internalType": "address payable",
              "name": "seller",
              "type": "address"
            },
            {
              "internalType": "address payable",
              "name": "owner",
              "type": "address"
            },
            {
              "internalType": "uint256",
              "name": "price",
              "type": "uint256"
            },
            {
              "internalType": "bool",
              "name": "sold",
              "type": "bool"
            }
          ],
          "internalType": "struct TellYourSecrets.Secret",
          "name": "",
          "type": "tuple"
        }
      ],
      "stateMutability": "view",
      "type": "function"
    },
    {
      "inputs": [],
      "name": "getSecretLength",
      "outputs": [
        {
          "internalType": "uint256",
          "name": "",
          "type": "uint256"
        }
      ],
      "stateMutability": "view",
      "type": "function"
    },
    {
      "inputs": [
        {
          "internalType": "address",
          "name": "owner",
          "type": "address"
        },
        {
          "internalType": "address",
          "name": "operator",
          "type": "address"
        }
      ],
      "name": "isApprovedForAll",
      "outputs": [
        {
          "internalType": "bool",
          "name": "",
          "type": "bool"
        }
      ],
      "stateMutability": "view",
      "type": "function"
    },
    {
      "inputs": [
        {
          "internalType": "address",
          "name": "from",
          "type": "address"
        },
        {
          "internalType": "address",
          "name": "to",
          "type": "address"
        },
        {
          "internalType": "uint256",
          "name": "tokenId",
          "type": "uint256"
        }
      ],
      "name": "makeTransfer",
      "outputs": [],
      "stateMutability": "nonpayable",
      "type": "function"
    },
    {
      "inputs": [],
      "name": "name",
      "outputs": [
        {
          "internalType": "string",
          "name": "",
          "type": "string"
        }
      ],
      "stateMutability": "view",
      "type": "function"
    },
    {
      "inputs": [
        {
          "internalType": "uint256",
          "name": "tokenId",
          "type": "uint256"
        }
      ],
      "name": "ownSecret",
      "outputs": [],
      "stateMutability": "payable",
      "type": "function"
    },
    {
      "inputs": [],
      "name": "owner",
      "outputs": [
        {
          "internalType": "address",
          "name": "",
          "type": "address"
        }
      ],
      "stateMutability": "view",
      "type": "function"
    },
    {
      "inputs": [
        {
          "internalType": "uint256",
          "name": "tokenId",
          "type": "uint256"
        }
      ],
      "name": "ownerOf",
      "outputs": [
        {
          "internalType": "address",
          "name": "",
          "type": "address"
        }
      ],
      "stateMutability": "view",
      "type": "function"
    },
    {
      "inputs": [],
      "name": "renounceOwnership",
      "outputs": [],
      "stateMutability": "nonpayable",
      "type": "function"
    },
    {
      "inputs": [
        {
          "internalType": "string",
          "name": "uri",
          "type": "string"
        },
        {
          "internalType": "uint256",
          "name": "price",
          "type": "uint256"
        }
      ],
      "name": "safeMint",
      "outputs": [
        {
          "internalType": "uint256",
          "name": "",
          "type": "uint256"
        }
      ],
      "stateMutability": "payable",
      "type": "function"
    },
    {
      "inputs": [
        {
          "internalType": "address",
          "name": "from",
          "type": "address"
        },
        {
          "internalType": "address",
          "name": "to",
          "type": "address"
        },
        {
          "internalType": "uint256",
          "name": "tokenId",
          "type": "uint256"
        }
      ],
      "name": "safeTransferFrom",
      "outputs": [],
      "stateMutability": "nonpayable",
      "type": "function"
    },
    {
      "inputs": [
        {
          "internalType": "address",
          "name": "from",
          "type": "address"
        },
        {
          "internalType": "address",
          "name": "to",
          "type": "address"
        },
        {
          "internalType": "uint256",
          "name": "tokenId",
          "type": "uint256"
        },
        {
          "internalType": "bytes",
          "name": "_data",
          "type": "bytes"
        }
      ],
      "name": "safeTransferFrom",
      "outputs": [],
      "stateMutability": "nonpayable",
      "type": "function"
    },
    {
      "inputs": [
        {
          "internalType": "address",
          "name": "operator",
          "type": "address"
        },
        {
          "internalType": "bool",
          "name": "approved",
          "type": "bool"
        }
      ],
      "name": "setApprovalForAll",
      "outputs": [],
      "stateMutability": "nonpayable",
      "type": "function"
    },
    {
      "inputs": [
        {
          "internalType": "bytes4",
          "name": "interfaceId",
          "type": "bytes4"
        }
      ],
      "name": "supportsInterface",
      "outputs": [
        {
          "internalType": "bool",
          "name": "",
          "type": "bool"
        }
      ],
      "stateMutability": "view",
      "type": "function"
    },
    {
      "inputs": [],
      "name": "symbol",
      "outputs": [
        {
          "internalType": "string",
          "name": "",
          "type": "string"
        }
      ],
      "stateMutability": "view",
      "type": "function"
    },
    {
      "inputs": [
        {
          "internalType": "uint256",
          "name": "index",
          "type": "uint256"
        }
      ],
      "name": "tokenByIndex",
      "outputs": [
        {
          "internalType": "uint256",
          "name": "",
          "type": "uint256"
        }
      ],
      "stateMutability": "view",
      "type": "function"
    },
    {
      "inputs": [
        {
          "internalType": "address",
          "name": "owner",
          "type": "address"
        },
        {
          "internalType": "uint256",
          "name": "index",
          "type": "uint256"
        }
      ],
      "name": "tokenOfOwnerByIndex",
      "outputs": [
        {
          "internalType": "uint256",
          "name": "",
          "type": "uint256"
        }
      ],
      "stateMutability": "view",
      "type": "function"
    },
    {
      "inputs": [
        {
          "internalType": "uint256",
          "name": "tokenId",
          "type": "uint256"
        }
      ],
      "name": "tokenURI",
      "outputs": [
        {
          "internalType": "string",
          "name": "",
          "type": "string"
        }
      ],
      "stateMutability": "view",
      "type": "function"
    },
    {
      "inputs": [],
      "name": "totalSupply",
      "outputs": [
        {
          "internalType": "uint256",
          "name": "",
          "type": "uint256"
        }
      ],
      "stateMutability": "view",
      "type": "function"
    },
    {
      "inputs": [
        {
          "internalType": "address",
          "name": "from",
          "type": "address"
        },
        {
          "internalType": "address",
          "name": "to",
          "type": "address"
        },
        {
          "internalType": "uint256",
          "name": "tokenId",
          "type": "uint256"
        }
      ],
      "name": "transferFrom",
      "outputs": [],
      "stateMutability": "nonpayable",
      "type": "function"
    },
    {
      "inputs": [
        {
          "internalType": "address",
          "name": "newOwner",
          "type": "address"
        }
      ],
      "name": "transferOwnership",
      "outputs": [],
      "stateMutability": "nonpayable",
      "type": "function"
    }
  ],
  "bytecode": "0x60806040526000600d553480156200001657600080fd5b506040518060400160405280600781526020017f53656372657473000000000000000000000000000000000000000000000000008152506040518060400160405280600381526020017f534543000000000000000000000000000000000000000000000000000000000081525081600090805190602001906200009b929190620001ab565b508060019080519060200190620000b4929190620001ab565b505050620000d7620000cb620000dd60201b60201c565b620000e560201b60201c565b620002c0565b600033905090565b6000600b60009054906101000a900473ffffffffffffffffffffffffffffffffffffffff16905081600b60006101000a81548173ffffffffffffffffffffffffffffffffffffffff021916908373ffffffffffffffffffffffffffffffffffffffff1602179055508173ffffffffffffffffffffffffffffffffffffffff168173ffffffffffffffffffffffffffffffffffffffff167f8be0079c531659141344cd1fd0a4f28419497f9722a3daafe3b4186f6b6457e060405160405180910390a35050565b828054620001b9906200025b565b90600052602060002090601f016020900481019282620001dd576000855562000229565b82601f10620001f857805160ff191683800117855562000229565b8280016001018555821562000229579182015b82811115620002285782518255916020019190600101906200020b565b5b5090506200023891906200023c565b5090565b5b80821115620002575760008160009055506001016200023d565b5090565b600060028204905060018216806200027457607f821691505b602082108114156200028b576200028a62000291565b5b50919050565b7f4e487b7100000000000000000000000000000000000000000000000000000000600052602260045260246000fd5b6143a880620002d06000396000f3fe6080604052600436106101815760003560e01c8063715018a6116100d1578063a22cb4651161008a578063b88d4fde11610064578063b88d4fde1461057f578063c87b56dd146105a8578063e985e9c5146105e5578063f2fde38b1461062257610181565b8063a22cb46514610511578063a6e491541461053a578063b0dbe8e41461056357610181565b8063715018a6146104115780638d17664d146104285780638da5cb5b1461046557806395d89b41146104905780639624b8a7146104bb578063a0e67e2b146104e657610181565b806323b872dd1161013e57806346b145e11161011857806346b145e11461032a5780634f6ccce71461035a5780636352211e1461039757806370a08231146103d457610181565b806323b872dd1461029b5780632f745c59146102c457806342842e0e1461030157610181565b806301ffc9a71461018657806306fdde03146101c3578063081812fc146101ee578063095ea7b31461022b57806318160ddd146102545780631f21c2f21461027f575b600080fd5b34801561019257600080fd5b506101ad60048036038101906101a89190612f33565b61064b565b6040516101ba9190613517565b60405180910390f35b3480156101cf57600080fd5b506101d861065d565b6040516101e59190613532565b60405180910390f35b3480156101fa57600080fd5b5061021560048036038101906102109190612fd9565b6106ef565b60405161022291906134b0565b60405180910390f35b34801561023757600080fd5b50610252600480360381019061024d9190612ef7565b610774565b005b34801561026057600080fd5b5061026961088c565b604051610276919061384f565b60405180910390f35b61029960048036038101906102949190612fd9565b610899565b005b3480156102a757600080fd5b506102c260048036038101906102bd9190612df1565b610a24565b005b3480156102d057600080fd5b506102eb60048036038101906102e69190612ef7565b610a84565b6040516102f8919061384f565b60405180910390f35b34801561030d57600080fd5b5061032860048036038101906103239190612df1565b610b29565b005b610344600480360381019061033f9190612f85565b610b49565b604051610351919061384f565b60405180910390f35b34801561036657600080fd5b50610381600480360381019061037c9190612fd9565b610b8a565b60405161038e919061384f565b60405180910390f35b3480156103a357600080fd5b506103be60048036038101906103b99190612fd9565b610c21565b6040516103cb91906134b0565b60405180910390f35b3480156103e057600080fd5b506103fb60048036038101906103f69190612d8c565b610cd3565b604051610408919061384f565b60405180910390f35b34801561041d57600080fd5b50610426610d8b565b005b34801561043457600080fd5b5061044f600480360381019061044a9190612fd9565b610e13565b60405161045c9190613834565b60405180910390f35b34801561047157600080fd5b5061047a610f1b565b60405161048791906134b0565b60405180910390f35b34801561049c57600080fd5b506104a5610f45565b6040516104b29190613532565b60405180910390f35b3480156104c757600080fd5b506104d0610fd7565b6040516104dd919061384f565b60405180910390f35b3480156104f257600080fd5b506104fb610fe8565b604051610508919061384f565b60405180910390f35b34801561051d57600080fd5b5061053860048036038101906105339190612ebb565b610ff2565b005b34801561054657600080fd5b50610561600480360381019061055c9190612df1565b611008565b005b61057d60048036038101906105789190612fd9565b611085565b005b34801561058b57600080fd5b506105a660048036038101906105a19190612e40565b61127d565b005b3480156105b457600080fd5b506105cf60048036038101906105ca9190612fd9565b6112df565b6040516105dc9190613532565b60405180910390f35b3480156105f157600080fd5b5061060c60048036038101906106079190612db5565b6112f1565b6040516106199190613517565b60405180910390f35b34801561062e57600080fd5b5061064960048036038101906106449190612d8c565b611385565b005b60006106568261147d565b9050919050565b60606000805461066c90613b11565b80601f016020809104026020016040519081016040528092919081815260200182805461069890613b11565b80156106e55780601f106106ba576101008083540402835291602001916106e5565b820191906000526020600020905b8154815290600101906020018083116106c857829003601f168201915b5050505050905090565b60006106fa826114f7565b610739576040517f08c379a000000000000000000000000000000000000000000000000000000000815260040161073090613754565b60405180910390fd5b6004600083815260200190815260200160002060009054906101000a900473ffffffffffffffffffffffffffffffffffffffff169050919050565b600061077f82610c21565b90508073ffffffffffffffffffffffffffffffffffffffff168373ffffffffffffffffffffffffffffffffffffffff1614156107f0576040517f08c379a00000000000000000000000000000000000000000000000000000000081526004016107e7906137b4565b60405180910390fd5b8073ffffffffffffffffffffffffffffffffffffffff1661080f611563565b73ffffffffffffffffffffffffffffffffffffffff16148061083e575061083d81610838611563565b6112f1565b5b61087d576040517f08c379a000000000000000000000000000000000000000000000000000000000815260040161087490613654565b60405180910390fd5b610887838361156b565b505050565b6000600880549050905090565b3373ffffffffffffffffffffffffffffffffffffffff16600e600083815260200190815260200160002060020160009054906101000a900473ffffffffffffffffffffffffffffffffffffffff1673ffffffffffffffffffffffffffffffffffffffff161461093d576040517f08c379a000000000000000000000000000000000000000000000000000000000815260040161093490613734565b60405180910390fd5b6000600e600083815260200190815260200160002060040160006101000a81548160ff02191690831515021790555033600e600083815260200190815260200160002060010160006101000a81548173ffffffffffffffffffffffffffffffffffffffff021916908373ffffffffffffffffffffffffffffffffffffffff16021790555030600e600083815260200190815260200160002060020160006101000a81548173ffffffffffffffffffffffffffffffffffffffff021916908373ffffffffffffffffffffffffffffffffffffffff160217905550610a21333083611624565b50565b610a35610a2f611563565b8261188b565b610a74576040517f08c379a0000000000000000000000000000000000000000000000000000000008152600401610a6b906137d4565b60405180910390fd5b610a7f838383611624565b505050565b6000610a8f83610cd3565b8210610ad0576040517f08c379a0000000000000000000000000000000000000000000000000000000008152600401610ac790613554565b60405180910390fd5b600660008473ffffffffffffffffffffffffffffffffffffffff1673ffffffffffffffffffffffffffffffffffffffff168152602001908152602001600020600083815260200190815260200160002054905092915050565b610b448383836040518060200160405280600081525061127d565b505050565b600080610b56600c611969565b9050610b62600c611977565b610b6c338261198d565b610b768185611b67565b610b808184611bdb565b8091505092915050565b6000610b9461088c565b8210610bd5576040517f08c379a0000000000000000000000000000000000000000000000000000000008152600401610bcc906137f4565b60405180910390fd5b60088281548110610c0f577f4e487b7100000000000000000000000000000000000000000000000000000000600052603260045260246000fd5b90600052602060002001549050919050565b6000806002600084815260200190815260200160002060009054906101000a900473ffffffffffffffffffffffffffffffffffffffff169050600073ffffffffffffffffffffffffffffffffffffffff168173ffffffffffffffffffffffffffffffffffffffff161415610cca576040517f08c379a0000000000000000000000000000000000000000000000000000000008152600401610cc190613694565b60405180910390fd5b80915050919050565b60008073ffffffffffffffffffffffffffffffffffffffff168273ffffffffffffffffffffffffffffffffffffffff161415610d44576040517f08c379a0000000000000000000000000000000000000000000000000000000008152600401610d3b90613674565b60405180910390fd5b600360008373ffffffffffffffffffffffffffffffffffffffff1673ffffffffffffffffffffffffffffffffffffffff168152602001908152602001600020549050919050565b610d93611563565b73ffffffffffffffffffffffffffffffffffffffff16610db1610f1b565b73ffffffffffffffffffffffffffffffffffffffff1614610e07576040517f08c379a0000000000000000000000000000000000000000000000000000000008152600401610dfe90613774565b60405180910390fd5b610e116000611d5b565b565b610e1b612b53565b600e60008381526020019081526020016000206040518060a0016040529081600082015481526020016001820160009054906101000a900473ffffffffffffffffffffffffffffffffffffffff1673ffffffffffffffffffffffffffffffffffffffff1673ffffffffffffffffffffffffffffffffffffffff1681526020016002820160009054906101000a900473ffffffffffffffffffffffffffffffffffffffff1673ffffffffffffffffffffffffffffffffffffffff1673ffffffffffffffffffffffffffffffffffffffff168152602001600382015481526020016004820160009054906101000a900460ff1615151515815250509050919050565b6000600b60009054906101000a900473ffffffffffffffffffffffffffffffffffffffff16905090565b606060018054610f5490613b11565b80601f0160208091040260200160405190810160405280929190818152602001828054610f8090613b11565b8015610fcd5780601f10610fa257610100808354040283529160200191610fcd565b820191906000526020600020905b815481529060010190602001808311610fb057829003601f168201915b5050505050905090565b6000610fe3600c611969565b905090565b6000600d54905090565b611004610ffd611563565b8383611e21565b5050565b611013838383611624565b81600e600083815260200190815260200160002060020160006101000a81548173ffffffffffffffffffffffffffffffffffffffff021916908373ffffffffffffffffffffffffffffffffffffffff160217905550600d600081548092919061107b90613b74565b9190505550505050565b6000600e60008381526020019081526020016000206003015490506000600e600084815260200190815260200160002060010160009054906101000a900473ffffffffffffffffffffffffffffffffffffffff1690508134101561111e576040517f08c379a0000000000000000000000000000000000000000000000000000000008152600401611115906136d4565b60405180910390fd5b33600e600085815260200190815260200160002060020160006101000a81548173ffffffffffffffffffffffffffffffffffffffff021916908373ffffffffffffffffffffffffffffffffffffffff1602179055506001600e600085815260200190815260200160002060040160006101000a81548160ff0219169083151502179055506000600e600085815260200190815260200160002060010160006101000a81548173ffffffffffffffffffffffffffffffffffffffff021916908373ffffffffffffffffffffffffffffffffffffffff1602179055506002600e6000858152602001908152602001600020600301600082825461121f91906139bb565b92505081905550611231303385611624565b8073ffffffffffffffffffffffffffffffffffffffff166108fc349081150290604051600060405180830381858888f19350505050158015611277573d6000803e3d6000fd5b50505050565b61128e611288611563565b8361188b565b6112cd576040517f08c379a00000000000000000000000000000000000000000000000000000000081526004016112c4906137d4565b60405180910390fd5b6112d984848484611f8e565b50505050565b60606112ea82611fea565b9050919050565b6000600560008473ffffffffffffffffffffffffffffffffffffffff1673ffffffffffffffffffffffffffffffffffffffff16815260200190815260200160002060008373ffffffffffffffffffffffffffffffffffffffff1673ffffffffffffffffffffffffffffffffffffffff16815260200190815260200160002060009054906101000a900460ff16905092915050565b61138d611563565b73ffffffffffffffffffffffffffffffffffffffff166113ab610f1b565b73ffffffffffffffffffffffffffffffffffffffff1614611401576040517f08c379a00000000000000000000000000000000000000000000000000000000081526004016113f890613774565b60405180910390fd5b600073ffffffffffffffffffffffffffffffffffffffff168173ffffffffffffffffffffffffffffffffffffffff161415611471576040517f08c379a000000000000000000000000000000000000000000000000000000000815260040161146890613594565b60405180910390fd5b61147a81611d5b565b50565b60007f780e9d63000000000000000000000000000000000000000000000000000000007bffffffffffffffffffffffffffffffffffffffffffffffffffffffff1916827bffffffffffffffffffffffffffffffffffffffffffffffffffffffff191614806114f057506114ef8261213c565b5b9050919050565b60008073ffffffffffffffffffffffffffffffffffffffff166002600084815260200190815260200160002060009054906101000a900473ffffffffffffffffffffffffffffffffffffffff1673ffffffffffffffffffffffffffffffffffffffff1614159050919050565b600033905090565b816004600083815260200190815260200160002060006101000a81548173ffffffffffffffffffffffffffffffffffffffff021916908373ffffffffffffffffffffffffffffffffffffffff160217905550808273ffffffffffffffffffffffffffffffffffffffff166115de83610c21565b73ffffffffffffffffffffffffffffffffffffffff167f8c5be1e5ebec7d5bd14f71427d1e84f3dd0314c0f7b2291e5b200ac8c7c3b92560405160405180910390a45050565b8273ffffffffffffffffffffffffffffffffffffffff1661164482610c21565b73ffffffffffffffffffffffffffffffffffffffff161461169a576040517f08c379a0000000000000000000000000000000000000000000000000000000008152600401611691906135b4565b60405180910390fd5b600073ffffffffffffffffffffffffffffffffffffffff168273ffffffffffffffffffffffffffffffffffffffff16141561170a576040517f08c379a0000000000000000000000000000000000000000000000000000000008152600401611701906135f4565b60405180910390fd5b61171583838361221e565b61172060008261156b565b6001600360008573ffffffffffffffffffffffffffffffffffffffff1673ffffffffffffffffffffffffffffffffffffffff16815260200190815260200160002060008282546117709190613a15565b925050819055506001600360008473ffffffffffffffffffffffffffffffffffffffff1673ffffffffffffffffffffffffffffffffffffffff16815260200190815260200160002060008282546117c79190613934565b92505081905550816002600083815260200190815260200160002060006101000a81548173ffffffffffffffffffffffffffffffffffffffff021916908373ffffffffffffffffffffffffffffffffffffffff160217905550808273ffffffffffffffffffffffffffffffffffffffff168473ffffffffffffffffffffffffffffffffffffffff167fddf252ad1be2c89b69c2b068fc378daa952ba7f163c4a11628f55a4df523b3ef60405160405180910390a461188683838361222e565b505050565b6000611896826114f7565b6118d5576040517f08c379a00000000000000000000000000000000000000000000000000000000081526004016118cc90613634565b60405180910390fd5b60006118e083610c21565b90508073ffffffffffffffffffffffffffffffffffffffff168473ffffffffffffffffffffffffffffffffffffffff161480611922575061192181856112f1565b5b8061196057508373ffffffffffffffffffffffffffffffffffffffff16611948846106ef565b73ffffffffffffffffffffffffffffffffffffffff16145b91505092915050565b600081600001549050919050565b6001816000016000828254019250508190555050565b600073ffffffffffffffffffffffffffffffffffffffff168273ffffffffffffffffffffffffffffffffffffffff1614156119fd576040517f08c379a00000000000000000000000000000000000000000000000000000000081526004016119f4906136f4565b60405180910390fd5b611a06816114f7565b15611a46576040517f08c379a0000000000000000000000000000000000000000000000000000000008152600401611a3d906135d4565b60405180910390fd5b611a526000838361221e565b6001600360008473ffffffffffffffffffffffffffffffffffffffff1673ffffffffffffffffffffffffffffffffffffffff1681526020019081526020016000206000828254611aa29190613934565b92505081905550816002600083815260200190815260200160002060006101000a81548173ffffffffffffffffffffffffffffffffffffffff021916908373ffffffffffffffffffffffffffffffffffffffff160217905550808273ffffffffffffffffffffffffffffffffffffffff16600073ffffffffffffffffffffffffffffffffffffffff167fddf252ad1be2c89b69c2b068fc378daa952ba7f163c4a11628f55a4df523b3ef60405160405180910390a4611b636000838361222e565b5050565b611b70826114f7565b611baf576040517f08c379a0000000000000000000000000000000000000000000000000000000008152600401611ba6906136b4565b60405180910390fd5b80600a60008481526020019081526020016000209080519060200190611bd6929190612bb0565b505050565b60008111611c1e576040517f08c379a0000000000000000000000000000000000000000000000000000000008152600401611c1590613814565b60405180910390fd5b6040518060a001604052808381526020013373ffffffffffffffffffffffffffffffffffffffff1681526020013073ffffffffffffffffffffffffffffffffffffffff16815260200182815260200160001515815250600e60008481526020019081526020016000206000820151816000015560208201518160010160006101000a81548173ffffffffffffffffffffffffffffffffffffffff021916908373ffffffffffffffffffffffffffffffffffffffff16021790555060408201518160020160006101000a81548173ffffffffffffffffffffffffffffffffffffffff021916908373ffffffffffffffffffffffffffffffffffffffff1602179055506060820151816003015560808201518160040160006101000a81548160ff021916908315150217905550905050611d57333084611624565b5050565b6000600b60009054906101000a900473ffffffffffffffffffffffffffffffffffffffff16905081600b60006101000a81548173ffffffffffffffffffffffffffffffffffffffff021916908373ffffffffffffffffffffffffffffffffffffffff1602179055508173ffffffffffffffffffffffffffffffffffffffff168173ffffffffffffffffffffffffffffffffffffffff167f8be0079c531659141344cd1fd0a4f28419497f9722a3daafe3b4186f6b6457e060405160405180910390a35050565b8173ffffffffffffffffffffffffffffffffffffffff168373ffffffffffffffffffffffffffffffffffffffff161415611e90576040517f08c379a0000000000000000000000000000000000000000000000000000000008152600401611e8790613614565b60405180910390fd5b80600560008573ffffffffffffffffffffffffffffffffffffffff1673ffffffffffffffffffffffffffffffffffffffff16815260200190815260200160002060008473ffffffffffffffffffffffffffffffffffffffff1673ffffffffffffffffffffffffffffffffffffffff16815260200190815260200160002060006101000a81548160ff0219169083151502179055508173ffffffffffffffffffffffffffffffffffffffff168373ffffffffffffffffffffffffffffffffffffffff167f17307eab39ab6107e8899845ad3d59bd9653f200f220920489ca2b5937696c3183604051611f819190613517565b60405180910390a3505050565b611f99848484611624565b611fa584848484612233565b611fe4576040517f08c379a0000000000000000000000000000000000000000000000000000000008152600401611fdb90613574565b60405180910390fd5b50505050565b6060611ff5826114f7565b612034576040517f08c379a000000000000000000000000000000000000000000000000000000000815260040161202b90613714565b60405180910390fd5b6000600a6000848152602001908152602001600020805461205490613b11565b80601f016020809104026020016040519081016040528092919081815260200182805461208090613b11565b80156120cd5780601f106120a2576101008083540402835291602001916120cd565b820191906000526020600020905b8154815290600101906020018083116120b057829003601f168201915b5050505050905060006120de6123ca565b90506000815114156120f4578192505050612137565b60008251111561212957808260405160200161211192919061348c565b60405160208183030381529060405292505050612137565b612132846123e1565b925050505b919050565b60007f80ac58cd000000000000000000000000000000000000000000000000000000007bffffffffffffffffffffffffffffffffffffffffffffffffffffffff1916827bffffffffffffffffffffffffffffffffffffffffffffffffffffffff1916148061220757507f5b5e139f000000000000000000000000000000000000000000000000000000007bffffffffffffffffffffffffffffffffffffffffffffffffffffffff1916827bffffffffffffffffffffffffffffffffffffffffffffffffffffffff1916145b80612217575061221682612488565b5b9050919050565b6122298383836124f2565b505050565b505050565b60006122548473ffffffffffffffffffffffffffffffffffffffff16612606565b156123bd578373ffffffffffffffffffffffffffffffffffffffff1663150b7a0261227d611563565b8786866040518563ffffffff1660e01b815260040161229f94939291906134cb565b602060405180830381600087803b1580156122b957600080fd5b505af19250505080156122ea57506040513d601f19601f820116820180604052508101906122e79190612f5c565b60015b61236d573d806000811461231a576040519150601f19603f3d011682016040523d82523d6000602084013e61231f565b606091505b50600081511415612365576040517f08c379a000000000000000000000000000000000000000000000000000000000815260040161235c90613574565b60405180910390fd5b805181602001fd5b63150b7a0260e01b7bffffffffffffffffffffffffffffffffffffffffffffffffffffffff1916817bffffffffffffffffffffffffffffffffffffffffffffffffffffffff1916149150506123c2565b600190505b949350505050565b606060405180602001604052806000815250905090565b60606123ec826114f7565b61242b576040517f08c379a000000000000000000000000000000000000000000000000000000000815260040161242290613794565b60405180910390fd5b60006124356123ca565b905060008151116124555760405180602001604052806000815250612480565b8061245f84612629565b60405160200161247092919061348c565b6040516020818303038152906040525b915050919050565b60007f01ffc9a7000000000000000000000000000000000000000000000000000000007bffffffffffffffffffffffffffffffffffffffffffffffffffffffff1916827bffffffffffffffffffffffffffffffffffffffffffffffffffffffff1916149050919050565b6124fd8383836127d6565b600073ffffffffffffffffffffffffffffffffffffffff168373ffffffffffffffffffffffffffffffffffffffff1614156125405761253b816127db565b61257f565b8173ffffffffffffffffffffffffffffffffffffffff168373ffffffffffffffffffffffffffffffffffffffff161461257e5761257d8382612824565b5b5b600073ffffffffffffffffffffffffffffffffffffffff168273ffffffffffffffffffffffffffffffffffffffff1614156125c2576125bd81612991565b612601565b8273ffffffffffffffffffffffffffffffffffffffff168273ffffffffffffffffffffffffffffffffffffffff1614612600576125ff8282612ad4565b5b5b505050565b6000808273ffffffffffffffffffffffffffffffffffffffff163b119050919050565b60606000821415612671576040518060400160405280600181526020017f300000000000000000000000000000000000000000000000000000000000000081525090506127d1565b600082905060005b600082146126a357808061268c90613b74565b915050600a8261269c919061398a565b9150612679565b60008167ffffffffffffffff8111156126e5577f4e487b7100000000000000000000000000000000000000000000000000000000600052604160045260246000fd5b6040519080825280601f01601f1916602001820160405280156127175781602001600182028036833780820191505090505b5090505b600085146127ca576001826127309190613a15565b9150600a8561273f9190613bbd565b603061274b9190613934565b60f81b818381518110612787577f4e487b7100000000000000000000000000000000000000000000000000000000600052603260045260246000fd5b60200101907effffffffffffffffffffffffffffffffffffffffffffffffffffffffffffff1916908160001a905350600a856127c3919061398a565b945061271b565b8093505050505b919050565b505050565b6008805490506009600083815260200190815260200160002081905550600881908060018154018082558091505060019003906000526020600020016000909190919091505550565b6000600161283184610cd3565b61283b9190613a15565b9050600060076000848152602001908152602001600020549050818114612920576000600660008673ffffffffffffffffffffffffffffffffffffffff1673ffffffffffffffffffffffffffffffffffffffff168152602001908152602001600020600084815260200190815260200160002054905080600660008773ffffffffffffffffffffffffffffffffffffffff1673ffffffffffffffffffffffffffffffffffffffff168152602001908152602001600020600084815260200190815260200160002081905550816007600083815260200190815260200160002081905550505b6007600084815260200190815260200160002060009055600660008573ffffffffffffffffffffffffffffffffffffffff1673ffffffffffffffffffffffffffffffffffffffff16815260200190815260200160002060008381526020019081526020016000206000905550505050565b600060016008805490506129a59190613a15565b90506000600960008481526020019081526020016000205490506000600883815481106129fb577f4e487b7100000000000000000000000000000000000000000000000000000000600052603260045260246000fd5b906000526020600020015490508060088381548110612a43577f4e487b7100000000000000000000000000000000000000000000000000000000600052603260045260246000fd5b906000526020600020018190555081600960008381526020019081526020016000208190555060096000858152602001908152602001600020600090556008805480612ab8577f4e487b7100000000000000000000000000000000000000000000000000000000600052603160045260246000fd5b6001900381819060005260206000200160009055905550505050565b6000612adf83610cd3565b905081600660008573ffffffffffffffffffffffffffffffffffffffff1673ffffffffffffffffffffffffffffffffffffffff168152602001908152602001600020600083815260200190815260200160002081905550806007600084815260200190815260200160002081905550505050565b6040518060a0016040528060008152602001600073ffffffffffffffffffffffffffffffffffffffff168152602001600073ffffffffffffffffffffffffffffffffffffffff168152602001600081526020016000151581525090565b828054612bbc90613b11565b90600052602060002090601f016020900481019282612bde5760008555612c25565b82601f10612bf757805160ff1916838001178555612c25565b82800160010185558215612c25579182015b82811115612c24578251825591602001919060010190612c09565b5b509050612c329190612c36565b5090565b5b80821115612c4f576000816000905550600101612c37565b5090565b6000612c66612c618461388f565b61386a565b905082815260208101848484011115612c7e57600080fd5b612c89848285613acf565b509392505050565b6000612ca4612c9f846138c0565b61386a565b905082815260208101848484011115612cbc57600080fd5b612cc7848285613acf565b509392505050565b600081359050612cde81614316565b92915050565b600081359050612cf38161432d565b92915050565b600081359050612d0881614344565b92915050565b600081519050612d1d81614344565b92915050565b600082601f830112612d3457600080fd5b8135612d44848260208601612c53565b91505092915050565b600082601f830112612d5e57600080fd5b8135612d6e848260208601612c91565b91505092915050565b600081359050612d868161435b565b92915050565b600060208284031215612d9e57600080fd5b6000612dac84828501612ccf565b91505092915050565b60008060408385031215612dc857600080fd5b6000612dd685828601612ccf565b9250506020612de785828601612ccf565b9150509250929050565b600080600060608486031215612e0657600080fd5b6000612e1486828701612ccf565b9350506020612e2586828701612ccf565b9250506040612e3686828701612d77565b9150509250925092565b60008060008060808587031215612e5657600080fd5b6000612e6487828801612ccf565b9450506020612e7587828801612ccf565b9350506040612e8687828801612d77565b925050606085013567ffffffffffffffff811115612ea357600080fd5b612eaf87828801612d23565b91505092959194509250565b60008060408385031215612ece57600080fd5b6000612edc85828601612ccf565b9250506020612eed85828601612ce4565b9150509250929050565b60008060408385031215612f0a57600080fd5b6000612f1885828601612ccf565b9250506020612f2985828601612d77565b9150509250929050565b600060208284031215612f4557600080fd5b6000612f5384828501612cf9565b91505092915050565b600060208284031215612f6e57600080fd5b6000612f7c84828501612d0e565b91505092915050565b60008060408385031215612f9857600080fd5b600083013567ffffffffffffffff811115612fb257600080fd5b612fbe85828601612d4d565b9250506020612fcf85828601612d77565b9150509250929050565b600060208284031215612feb57600080fd5b6000612ff984828501612d77565b91505092915050565b61300b81613a5b565b82525050565b61301a81613a49565b82525050565b61302981613a6d565b82525050565b61303881613a6d565b82525050565b6000613049826138f1565b6130538185613907565b9350613063818560208601613ade565b61306c81613caa565b840191505092915050565b6000613082826138fc565b61308c8185613918565b935061309c818560208601613ade565b6130a581613caa565b840191505092915050565b60006130bb826138fc565b6130c58185613929565b93506130d5818560208601613ade565b80840191505092915050565b60006130ee602b83613918565b91506130f982613cbb565b604082019050919050565b6000613111603283613918565b915061311c82613d0a565b604082019050919050565b6000613134602683613918565b915061313f82613d59565b604082019050919050565b6000613157602583613918565b915061316282613da8565b604082019050919050565b600061317a601c83613918565b915061318582613df7565b602082019050919050565b600061319d602483613918565b91506131a882613e20565b604082019050919050565b60006131c0601983613918565b91506131cb82613e6f565b602082019050919050565b60006131e3602c83613918565b91506131ee82613e98565b604082019050919050565b6000613206603883613918565b915061321182613ee7565b604082019050919050565b6000613229602a83613918565b915061323482613f36565b604082019050919050565b600061324c602983613918565b915061325782613f85565b604082019050919050565b600061326f602e83613918565b915061327a82613fd4565b604082019050919050565b6000613292604083613918565b915061329d82614023565b604082019050919050565b60006132b5602083613918565b91506132c082614072565b602082019050919050565b60006132d8603183613918565b91506132e38261409b565b604082019050919050565b60006132fb602a83613918565b9150613306826140ea565b604082019050919050565b600061331e602c83613918565b915061332982614139565b604082019050919050565b6000613341602083613918565b915061334c82614188565b602082019050919050565b6000613364602f83613918565b915061336f826141b1565b604082019050919050565b6000613387602183613918565b915061339282614200565b604082019050919050565b60006133aa603183613918565b91506133b58261424f565b604082019050919050565b60006133cd602c83613918565b91506133d88261429e565b604082019050919050565b60006133f0601c83613918565b91506133fb826142ed565b602082019050919050565b60a08201600082015161341c600085018261346e565b50602082015161342f6020850182613002565b5060408201516134426040850182613002565b506060820151613455606085018261346e565b5060808201516134686080850182613020565b50505050565b61347781613ac5565b82525050565b61348681613ac5565b82525050565b600061349882856130b0565b91506134a482846130b0565b91508190509392505050565b60006020820190506134c56000830184613011565b92915050565b60006080820190506134e06000830187613011565b6134ed6020830186613011565b6134fa604083018561347d565b818103606083015261350c818461303e565b905095945050505050565b600060208201905061352c600083018461302f565b92915050565b6000602082019050818103600083015261354c8184613077565b905092915050565b6000602082019050818103600083015261356d816130e1565b9050919050565b6000602082019050818103600083015261358d81613104565b9050919050565b600060208201905081810360008301526135ad81613127565b9050919050565b600060208201905081810360008301526135cd8161314a565b9050919050565b600060208201905081810360008301526135ed8161316d565b9050919050565b6000602082019050818103600083015261360d81613190565b9050919050565b6000602082019050818103600083015261362d816131b3565b9050919050565b6000602082019050818103600083015261364d816131d6565b9050919050565b6000602082019050818103600083015261366d816131f9565b9050919050565b6000602082019050818103600083015261368d8161321c565b9050919050565b600060208201905081810360008301526136ad8161323f565b9050919050565b600060208201905081810360008301526136cd81613262565b9050919050565b600060208201905081810360008301526136ed81613285565b9050919050565b6000602082019050818103600083015261370d816132a8565b9050919050565b6000602082019050818103600083015261372d816132cb565b9050919050565b6000602082019050818103600083015261374d816132ee565b9050919050565b6000602082019050818103600083015261376d81613311565b9050919050565b6000602082019050818103600083015261378d81613334565b9050919050565b600060208201905081810360008301526137ad81613357565b9050919050565b600060208201905081810360008301526137cd8161337a565b9050919050565b600060208201905081810360008301526137ed8161339d565b9050919050565b6000602082019050818103600083015261380d816133c0565b9050919050565b6000602082019050818103600083015261382d816133e3565b9050919050565b600060a0820190506138496000830184613406565b92915050565b6000602082019050613864600083018461347d565b92915050565b6000613874613885565b90506138808282613b43565b919050565b6000604051905090565b600067ffffffffffffffff8211156138aa576138a9613c7b565b5b6138b382613caa565b9050602081019050919050565b600067ffffffffffffffff8211156138db576138da613c7b565b5b6138e482613caa565b9050602081019050919050565b600081519050919050565b600081519050919050565b600082825260208201905092915050565b600082825260208201905092915050565b600081905092915050565b600061393f82613ac5565b915061394a83613ac5565b9250827fffffffffffffffffffffffffffffffffffffffffffffffffffffffffffffffff0382111561397f5761397e613bee565b5b828201905092915050565b600061399582613ac5565b91506139a083613ac5565b9250826139b0576139af613c1d565b5b828204905092915050565b60006139c682613ac5565b91506139d183613ac5565b9250817fffffffffffffffffffffffffffffffffffffffffffffffffffffffffffffffff0483118215151615613a0a57613a09613bee565b5b828202905092915050565b6000613a2082613ac5565b9150613a2b83613ac5565b925082821015613a3e57613a3d613bee565b5b828203905092915050565b6000613a5482613aa5565b9050919050565b6000613a6682613aa5565b9050919050565b60008115159050919050565b60007fffffffff0000000000000000000000000000000000000000000000000000000082169050919050565b600073ffffffffffffffffffffffffffffffffffffffff82169050919050565b6000819050919050565b82818337600083830152505050565b60005b83811015613afc578082015181840152602081019050613ae1565b83811115613b0b576000848401525b50505050565b60006002820490506001821680613b2957607f821691505b60208210811415613b3d57613b3c613c4c565b5b50919050565b613b4c82613caa565b810181811067ffffffffffffffff82111715613b6b57613b6a613c7b565b5b80604052505050565b6000613b7f82613ac5565b91507fffffffffffffffffffffffffffffffffffffffffffffffffffffffffffffffff821415613bb257613bb1613bee565b5b600182019050919050565b6000613bc882613ac5565b9150613bd383613ac5565b925082613be357613be2613c1d565b5b828206905092915050565b7f4e487b7100000000000000000000000000000000000000000000000000000000600052601160045260246000fd5b7f4e487b7100000000000000000000000000000000000000000000000000000000600052601260045260246000fd5b7f4e487b7100000000000000000000000000000000000000000000000000000000600052602260045260246000fd5b7f4e487b7100000000000000000000000000000000000000000000000000000000600052604160045260246000fd5b6000601f19601f8301169050919050565b7f455243373231456e756d657261626c653a206f776e657220696e646578206f7560008201527f74206f6620626f756e6473000000000000000000000000000000000000000000602082015250565b7f4552433732313a207472616e7366657220746f206e6f6e20455243373231526560008201527f63656976657220696d706c656d656e7465720000000000000000000000000000602082015250565b7f4f776e61626c653a206e6577206f776e657220697320746865207a65726f206160008201527f6464726573730000000000000000000000000000000000000000000000000000602082015250565b7f4552433732313a207472616e736665722066726f6d20696e636f72726563742060008201527f6f776e6572000000000000000000000000000000000000000000000000000000602082015250565b7f4552433732313a20746f6b656e20616c7265616479206d696e74656400000000600082015250565b7f4552433732313a207472616e7366657220746f20746865207a65726f2061646460008201527f7265737300000000000000000000000000000000000000000000000000000000602082015250565b7f4552433732313a20617070726f766520746f2063616c6c657200000000000000600082015250565b7f4552433732313a206f70657261746f7220717565727920666f72206e6f6e657860008201527f697374656e7420746f6b656e0000000000000000000000000000000000000000602082015250565b7f4552433732313a20617070726f76652063616c6c6572206973206e6f74206f7760008201527f6e6572206e6f7220617070726f76656420666f7220616c6c0000000000000000602082015250565b7f4552433732313a2062616c616e636520717565727920666f7220746865207a6560008201527f726f206164647265737300000000000000000000000000000000000000000000602082015250565b7f4552433732313a206f776e657220717565727920666f72206e6f6e657869737460008201527f656e7420746f6b656e0000000000000000000000000000000000000000000000602082015250565b7f45524337323155524953746f726167653a2055524920736574206f66206e6f6e60008201527f6578697374656e7420746f6b656e000000000000000000000000000000000000602082015250565b7f506c65617365207375626d6974207468652061736b696e67207072696365206960008201527f6e206f7264657220746f20636f6d706c65746520746865207075726368617365602082015250565b7f4552433732313a206d696e7420746f20746865207a65726f2061646472657373600082015250565b7f45524337323155524953746f726167653a2055524920717565727920666f722060008201527f6e6f6e6578697374656e7420746f6b656e000000000000000000000000000000602082015250565b7f4f6e6c79206974656d206f776e65722063616e20706572666f726d207468697360008201527f206f7065726174696f6e00000000000000000000000000000000000000000000602082015250565b7f4552433732313a20617070726f76656420717565727920666f72206e6f6e657860008201527f697374656e7420746f6b656e0000000000000000000000000000000000000000602082015250565b7f4f776e61626c653a2063616c6c6572206973206e6f7420746865206f776e6572600082015250565b7f4552433732314d657461646174613a2055524920717565727920666f72206e6f60008201527f6e6578697374656e7420746f6b656e0000000000000000000000000000000000602082015250565b7f4552433732313a20617070726f76616c20746f2063757272656e74206f776e6560008201527f7200000000000000000000000000000000000000000000000000000000000000602082015250565b7f4552433732313a207472616e736665722063616c6c6572206973206e6f74206f60008201527f776e6572206e6f7220617070726f766564000000000000000000000000000000602082015250565b7f455243373231456e756d657261626c653a20676c6f62616c20696e646578206f60008201527f7574206f6620626f756e64730000000000000000000000000000000000000000602082015250565b7f5072696365206d757374206265206174206c6561737420312077656900000000600082015250565b61431f81613a49565b811461432a57600080fd5b50565b61433681613a6d565b811461434157600080fd5b50565b61434d81613a79565b811461435857600080fd5b50565b61436481613ac5565b811461436f57600080fd5b5056fea2646970667358221220481583e8c1997f642d112f6d60613379409a1268f1c04f0c66e7da1ec9f9c60764736f6c63430008040033",
  "linkReferences": {},
  "deployedLinkReferences": {}
}